{
  "transactions": [
    {
      "hash": "0x4d6df10d95ea71984ac20bd4be9ceecf93d030112cd00a060b2cd8479038fc13",
      "transactionType": "CALL",
      "contractName": "DynamicMoodNft",
      "contractAddress": "0xfCEb21821a4B1dd801cfC3E6Ca99750Fcca9Ed38",
      "function": "flipMood(uint256)",
      "arguments": [
        "0"
      ],
      "rpc": "https://eth-sepolia.g.alchemy.com/v2/2fR3u9SJQSN4ZDaME1ckZAgygq4NfKgb",
      "transaction": {
        "type": "0x02",
        "from": "0x01e07a5371035bec2a86e1ff9eaac6b002edb102",
        "to": "0xfceb21821a4b1dd801cfc3e6ca99750fcca9ed38",
        "gas": "0xf96e",
        "value": "0x0",
        "data": "0xc1a147a00000000000000000000000000000000000000000000000000000000000000000",
        "nonce": "0xd2",
        "accessList": []
      },
      "additionalContracts": [],
      "isFixedGasLimit": false
    }
  ],
  "receipts": [],
  "libraries": [],
  "pending": [
    "0x4d6df10d95ea71984ac20bd4be9ceecf93d030112cd00a060b2cd8479038fc13"
  ],
  "path": "C:/Developer/1. Bootcamp Code/1. Web3 - Solidity Contracts/3. Patrick C - Foundry/3. NFT_pug_IPFS/NFT_collection_IPFS/broadcast\\Interactions.s.sol\\11155111\\run-latest.json",
  "returns": {},
  "timestamp": 1688817778,
  "chain": 11155111,
  "multi": false,
  "commit": null
}