{
  "transactions": [
    {
      "hash": "0x4d6df10d95ea71984ac20bd4be9ceecf93d030112cd00a060b2cd8479038fc13",
      "transactionType": "CALL",
      "contractName": "DynamicMoodNft",
      "contractAddress": "0xfCEb21821a4B1dd801cfC3E6Ca99750Fcca9Ed38",
      "function": "flipMood(uint256)",
      "arguments": [
        "0"
      ],
      "rpc": "https://eth-sepolia.g.alchemy.com/v2/2fR3u9SJQSN4ZDaME1ckZAgygq4NfKgb",
      "transaction": {
        "type": "0x02",
        "from": "0x01e07a5371035bec2a86e1ff9eaac6b002edb102",
        "to": "0xfceb21821a4b1dd801cfc3e6ca99750fcca9ed38",
        "gas": "0xf96e",
        "value": "0x0",
        "data": "0xc1a147a00000000000000000000000000000000000000000000000000000000000000000",
        "nonce": "0xd2",
        "accessList": []
      },
      "additionalContracts": [],
      "isFixedGasLimit": false
    }
  ],
  "receipts": [
    {
      "transactionHash": "0x4d6df10d95ea71984ac20bd4be9ceecf93d030112cd00a060b2cd8479038fc13",
      "transactionIndex": "0x1",
      "blockHash": "0xc69d7bd6a9d2079a41e3c0662cc7e55e91945d7939b62116ea55673482bc4664",
      "blockNumber": "0x3ac000",
      "from": "0x01e07A5371035BeC2A86e1Ff9eaAC6b002edB102",
      "to": "0xfCEb21821a4B1dd801cfC3E6Ca99750Fcca9Ed38",
      "cumulativeGasUsed": "0x1731e",
      "gasUsed": "0xb496",
      "contractAddress": null,
      "logs": [],
      "status": "0x1",
      "logsBloom": "0x00000000000000000000000000000000000000000000000000000000000000000000000000000000000000000000000000000000000000000000000000000000000000000000000000000000000000000000000000000000000000000000000000000000000000000000000000000000000000000000000000000000000000000000000000000000000000000000000000000000000000000000000000000000000000000000000000000000000000000000000000000000000000000000000000000000000000000000000000000000000000000000000000000000000000000000000000000000000000000000000000000000000000000000000000000000",
      "type": "0x2",
      "effectiveGasPrice": "0xb2d05e08"
    }
  ],
  "libraries": [],
  "pending": [],
  "path": "C:/Developer/1. Bootcamp Code/1. Web3 - Solidity Contracts/3. Patrick C - Foundry/3. NFT_pug_IPFS/NFT_collection_IPFS/broadcast\\Interactions.s.sol\\11155111\\run-latest.json",
  "returns": {},
  "timestamp": 1688817806,
  "chain": 11155111,
  "multi": false,
  "commit": null
}